{
  "contractName": "Voting",
  "abi": [
    {
      "inputs": [
        {
          "internalType": "string",
          "name": "",
          "type": "string"
        }
      ],
      "name": "votes",
      "outputs": [
        {
          "internalType": "uint256",
          "name": "yes",
          "type": "uint256"
        },
        {
          "internalType": "uint256",
          "name": "no",
          "type": "uint256"
        }
      ],
      "stateMutability": "view",
      "type": "function",
      "constant": true
    },
    {
      "inputs": [
        {
          "internalType": "string",
          "name": "_topic",
          "type": "string"
        }
      ],
      "name": "createVote",
      "outputs": [],
      "stateMutability": "nonpayable",
      "type": "function"
    },
    {
      "inputs": [
        {
          "internalType": "string",
          "name": "_topic",
          "type": "string"
        },
        {
          "internalType": "bool",
          "name": "_voteYes",
          "type": "bool"
        }
      ],
      "name": "vote",
      "outputs": [],
      "stateMutability": "nonpayable",
      "type": "function"
    },
    {
      "inputs": [
        {
          "internalType": "string",
          "name": "_topic",
          "type": "string"
        }
      ],
      "name": "getResults",
      "outputs": [
        {
          "internalType": "uint256",
          "name": "yes",
          "type": "uint256"
        },
        {
          "internalType": "uint256",
          "name": "no",
          "type": "uint256"
        }
      ],
      "stateMutability": "view",
      "type": "function",
      "constant": true
    }
  ],
  "bytecode": "0x608060405234801561001057600080fd5b50610798806100206000396000f3fe608060405234801561001057600080fd5b506004361061004c5760003560e01c806313292a021461005157806327d3410c1461006d5780632ff20f0114610089578063b99ef1fa146100ba575b600080fd5b61006b600480360381019061006691906103e2565b6100eb565b005b61008760048036038101906100829190610423565b6101c9565b005b6100a3600480360381019061009e91906103e2565b6102db565b6040516100b192919061058e565b60405180910390f35b6100d460048036038101906100cf91906103e2565b61032b565b6040516100e292919061058e565b60405180910390f35b600080826040516100fc9190610537565b90815260200160405180910390206000015414801561013b5750600080826040516101279190610537565b908152602001604051809103902060010154145b61017a576040517f08c379a00000000000000000000000000000000000000000000000000000000081526004016101719061056e565b60405180910390fd5b60405180604001604052806000815260200160008152506000826040516101a19190610537565b9081526020016040518091039020600082015181600001556020820151816001015590505050565b600080836040516101da9190610537565b90815260200160405180910390206000015414158061021a5750600080836040516102059190610537565b90815260200160405180910390206001015414155b610259576040517f08c379a00000000000000000000000000000000000000000000000000000000081526004016102509061054e565b60405180910390fd5b801561029d5760016000836040516102719190610537565b90815260200160405180910390206000016000828254610291919061063f565b925050819055506102d7565b60016000836040516102af9190610537565b908152602001604051809103902060010160008282546102cf919061063f565b925050819055505b5050565b6000806000836040516102ee9190610537565b9081526020016040518091039020600001546000846040516103109190610537565b90815260200160405180910390206001015491509150915091565b6000818051602081018201805184825260208301602085012081835280955050505050506000915090508060000154908060010154905082565b6000610378610373846105e8565b6105b7565b90508281526020810184848401111561039057600080fd5b61039b8482856106ab565b509392505050565b6000813590506103b28161074b565b92915050565b600082601f8301126103c957600080fd5b81356103d9848260208601610365565b91505092915050565b6000602082840312156103f457600080fd5b600082013567ffffffffffffffff81111561040e57600080fd5b61041a848285016103b8565b91505092915050565b6000806040838503121561043657600080fd5b600083013567ffffffffffffffff81111561045057600080fd5b61045c858286016103b8565b925050602061046d858286016103a3565b9150509250929050565b600061048282610618565b61048c8185610634565b935061049c8185602086016106ba565b80840191505092915050565b60006104b5601483610623565b91507f566f746520646f6573206e6f74206578697374210000000000000000000000006000830152602082019050919050565b60006104f5601483610623565b91507f566f746520616c726561647920657869737473210000000000000000000000006000830152602082019050919050565b610531816106a1565b82525050565b60006105438284610477565b915081905092915050565b60006020820190508181036000830152610567816104a8565b9050919050565b60006020820190508181036000830152610587816104e8565b9050919050565b60006040820190506105a36000830185610528565b6105b06020830184610528565b9392505050565b6000604051905081810181811067ffffffffffffffff821117156105de576105dd61071c565b5b8060405250919050565b600067ffffffffffffffff8211156106035761060261071c565b5b601f19601f8301169050602081019050919050565b600081519050919050565b600082825260208201905092915050565b600081905092915050565b600061064a826106a1565b9150610655836106a1565b9250827fffffffffffffffffffffffffffffffffffffffffffffffffffffffffffffffff0382111561068a576106896106ed565b5b828201905092915050565b60008115159050919050565b6000819050919050565b82818337600083830152505050565b60005b838110156106d85780820151818401526020810190506106bd565b838111156106e7576000848401525b50505050565b7f4e487b7100000000000000000000000000000000000000000000000000000000600052601160045260246000fd5b7f4e487b7100000000000000000000000000000000000000000000000000000000600052604160045260246000fd5b61075481610695565b811461075f57600080fd5b5056fea2646970667358221220d939d141e1c52bb09462116650c153f0de1c1d9019cadf9c4cea8ebe90e97e7864736f6c63430008000033",
  "immutableReferences": {},
  "source": "// SPDX-License-Identifier: MIT\r\npragma solidity ^0.8.0;\r\n\r\ncontract Voting {\r\n    struct Vote {\r\n        uint yes;\r\n        uint no;\r\n    }\r\n\r\n    mapping(string => Vote) public votes;\r\n\r\n    function createVote(string memory _topic) public {\r\n        require(votes[_topic].yes == 0 && votes[_topic].no == 0, \"Vote already exists!\");\r\n        votes[_topic] = Vote(0, 0);\r\n    }\r\n\r\n    function vote(string memory _topic, bool _voteYes) public {\r\n        require(votes[_topic].yes != 0 || votes[_topic].no != 0, \"Vote does not exist!\");\r\n        if (_voteYes) {\r\n            votes[_topic].yes += 1;\r\n        } else {\r\n            votes[_topic].no += 1;\r\n        }\r\n    }\r\n\r\n    function getResults(string memory _topic) public view returns (uint yes, uint no) {\r\n        return (votes[_topic].yes, votes[_topic].no);\r\n    }\r\n}\r\n",
  "sourcePath": "E:\\BELAJAR KODING\\SOLIDITY\\voting-web3\\contracts\\Voting.sol",
  "compiler": {
    "name": "solc",
    "version": "0.8.0+commit.c7dfd78e.Emscripten.clang"
  },
  "schemaVersion": "3.4.16",
  "updatedAt": "2024-08-23T03:52:39.136Z",
  "networkType": "ethereum",
  "devdoc": {
    "kind": "dev",
    "methods": {},
    "version": 1
  },
  "userdoc": {
    "kind": "user",
    "methods": {},
    "version": 1
  }
}